:020000040800F2
:10000000A8340020990100080F19000805170008FE
:100010000D19000889020008131D000800000000E7
:1000200000000000000000000000000001010008C6
:10003000ED0300080000000045010008311A000827
:10004000B3010008B3010008B3010008B3010008C0
:10005000B3010008B3010008B3010008B3010008B0
:10006000B3010008B3010008B3010008B3010008A0
:10007000B3010008B3010008B3010008B301000890
:10008000B3010008B3010008B3010008B301000880
:10009000B3010008B3010008B3010008B301000870
:1000A000B3010008AD1A0008B3010008B30100084D
:1000B000B3010008B3010008B3010008B301000850
:1000C000B3010008B3010008B3010008B301000840
:1000D000B3010008B3010008B3010008B301000830
:1000E000B3010008B3010008B3010008DFF80CD029
:1000F00000F0B8F800480047B91F0008A8340020F5
:10010000224B19680868B0E8F00F80F30988BFF344
:100110006F8F4FF0000080F311884EF00D0E704786
:100120000000000006480068006880F3088862B696
:1001300061B6BFF34F8FBFF36F8F00DF00BF00BF0B
:1001400008ED00E0EFF30980BFF36F8F0F4B1A68E3
:1001500020E9F00F106008B54FF0500080F31188CF
:10016000BFF34F8FBFF36F8F03F094F84FF0000091
:1001700080F31188BDE8084019680868B0E8F00FFE
:1001800080F30988BFF36F8F704700BF28000020FD
:10019000EFF3058070470000064880470648004797
:1001A000FEE7FEE7FEE7FEE7FEE7FEE7FEE7FEE727
:1001B000FEE7FEE7A91A0008ED00000840EA010387
:1001C0009B0703D009E008C9121F08C0042AFAD20D
:1001D00003E011F8013B00F8013B521EF9D27047D1
:1001E000D2B201E000F8012B491EFBD27047002279
:1001F000F6E710B513460A4604461946FFF7F0FF26
:10020000204610BD30B505462A460B4612F8010BB4
:1002100013F8014B08B1A042F8D01CB1002802D05D
:100220006D1CF1E7284630BD421C10F8011B002967
:10023000FBD1801A704730B50B46014600202022C2
:10024000012409E021FA02F59D4205D303FA02F5E3
:10025000491B04FA02F52844151EA2F10102F1DC43
:1002600030BD0000064C074D06E0E06840F0010399
:1002700094E8070098471034AC42F6D3FFF73AFFF2
:10028000A0430008C0430008FEE700007FB500243B
:100290000220174D00900194029469460394284669
:1002A00000F0C8FA04E0641CE4B2012001F06CFE26
:1002B0000221284600F0AEFB18B1642C13D20024B2
:1002C00007E0642CEFD30EE0641CE4B2012001F0DF
:1002D0005BFE0221284600F09DFB10B1642CF3D395
:1002E00001E0642C02D3002004B070BD0120FBE7C4
:1002F000000801402DE9F0410020184E0546400657
:10030000070E002404E0641CE4B2012001F03CFE6E
:100310000221304600F07EFB08B1642CF3D30024A8
:1003200004E0641CE4B2012001F02EFE02213046FC
:1003300000F070FB08B9642CF3D31E2001F024FEFA
:100340000221304600F066FB00B101206D1C3843ED
:10035000EDB2082DD3D3BDE8F081000000080140C4
:10036000F0B587B0064600200490022002900120DC
:10037000039003201C4C0D46059002A9204600F076
:1003800059FA00220221204600F049FB142001F016
:10039000F0FD01220221204600F041FB1E2001F069
:1003A000F3FDFFF773FF012802D0002007B0F0BD76
:1003B00000246F46FFF79EFF3855641CE4B2052CFD
:1003C000F8D39DF800109DF801009DF803300A183D
:1003D0009DF8020003441A449DF804309A4201D16A
:1003E000297030700120E1E70008014070470000EB
:1003F00000B5C1B00DA000900FA311A24FF4807101
:1004000001A801F097FC01A912A001F083FC01A84A
:1004100000F074F94FF4FA6110A000F097F9002889
:1004200002D10FA001F076FC41B000BD3135393664
:1004300036393434343838004F6E65506C7573007B
:1004400041542B43574A41503D222573222C2225EB
:100450007322000025730D0A000000004F4B0000BE
:100460005769466920636F6E6E65637420666169C3
:100470006C65640D0A00000010B50EA000F03EF996
:100480004FF47A7421460DA000F060F910B90DA068
:1004900001F040FC11A000F031F9214611A000F05C
:1004A00055F9002804D1BDE810400FA001F032BC7E
:1004B00010BD000041542B5253540000726561641A
:1004C0007900000045535033322052657365742023
:1004D0006661696C65640D0A000000004154453096
:1004E000000000004F4B0000455350333220415470
:1004F0004530206661696C65640D0A0000B5C1B0C5
:100500000C4A4FF48071684601F014FC69460AA059
:1005100001F000FC684600F0F1F840F6B8310EA09A
:1005200000F014F908B10DA000E013A001F0F2FBF7
:1005300041B000BD5843000853656E64696E672082
:100540004D515454207573657220636F6E666967F0
:100550003A2025730D0A00004F4B00004D515454B2
:10056000207573657220636F6E66696720737563AB
:10057000636573730D0A00004D5154542075736503
:100580007220636F6E666967206661696C65640DD1
:100590000A00000000B5C1B040F25B7000900DA3EE
:1005A00010A24FF4807101A801F0C4FB01A913A0AF
:1005B00001F0B0FB01A800F0A1F840F6B83116A098
:1005C00000F0C4F808B115A000E01CA001F0A2FBE7
:1005D00041B000BD62726F6B65722E656D71782ED1
:1005E000696F000041542B4D515454434F4E4E3DC2
:1005F000302C222573222C25642C300053656E6428
:10060000696E67204D51545420636F6E6E6563743C
:100610003A2025730D0A00004F4B00004D515454F1
:1006200020636F6E6E6563742073657276657220E9
:10063000737563636573730D0A0000004D51545464
:1006400020636F6E6E6563742073657276657220C9
:100650006661696C65640D0A0000000000B5C1B0F8
:10066000034600910CA24FF4807101A801F062FBD7
:1006700001A910A001F04EFB01A800F03FF84FF4D3
:10068000FA6111A000F062F808B110A000E015A016
:1006900001F040FB41B000BD41542B4D515454502A
:1006A00055423D302C222573222C222573222C30DA
:1006B0002C3000004D515454205075626C697368A1
:1006C0003A2025730D0A00004F4B00004D51545441
:1006D000205075626C69736820737563636573730A
:1006E0000D0A00004D515454205075626C697368B6
:1006F000206661696C65640D0A00000070B50F4CDE
:1007000006464FF0FF35C0B02946206801F0ACFD29
:1007100033460BA24FF48071684601F00BFB68462C
:10072000FFF782FD82B22B466946074800F09AFF28
:10073000206801F0F6FD40B070BD00001000002000
:1007400025730D0A00000000F80000202DE9F34F8A
:10075000254E0F4681B04FF0FF31306801F084FD27
:100760004FF400712148FFF742FDDFF88480002438
:10077000A8F8004000F058F9A14605464FF4FF7B69
:10078000DFF868A0444621E00A230122694619489F
:1007900000F010FFD0B92088584517D89DF80020E8
:1007A0000AF80020401C80B220800AF800900F4810
:1007B0000199FFF727FD48B10C490FA001F0AAFAF3
:1007C000306801F0AEFD0120BDE8FE8F00F02CF98D
:1007D000401BB842D8D305490DA001F09BFA306800
:1007E00001F09FFD0020EFE710000020A42E002064
:1007F000A8000020F80000205B45535033322052FF
:100800006573706F6E73655D3A0D0A25730D0A008E
:100810005B45535033322054696D656F75742052B7
:100820006573706F6E73655D3A0D0A25730D0A006E
:1008300072B6FEE72DE9F84FDFF8B8910024A9F170
:10084000040B23460F2709F1040AABF1040EC9E09B
:100850000125A5402A40AA427DD1674ED1F804C0A7
:10086000ACEB0608B44532D014DCBCF1030F3AD02F
:1008700009DCBCF1000F2AD0BCF1010F1CD0BCF187
:10088000020F31D11DE0BCF1110F17D0BCF1120FD6
:100890002AD119E0B8F5881F19D006DCB8F5803FD9
:1008A00015D0B8F5801F1FD111E0B8F5001F0ED08C
:1008B000B8F5041F18D10AE0CB6815E0CB681B1D02
:1008C00012E0CB6808330FE0CB680C330CE08B6888
:1008D0002BB1012B4FF0080303D0456104E0042342
:1008E00002E0056100E00023FF2A01D8064601E08E
:1008F00000F104064FEA840501D9A5F12005D6F8D8
:10090000008007FA05FC28EA0C0803FA05F548EA16
:100910000508C6F800804D68ED0062D5374DAE6918
:1009200046F00106AE61AD6924F0030605F001054D
:100930000095334D06EB050CDCF80850A607360F82
:1009400007FA06F825EA0805DFF8B880404503D124
:100950004FF0000817E044E0DFF8AC80404502D1DA
:100960004FF001080FE0DFF8A480404502D14FF0BE
:10097000020808E0DFF89880404502D14FF00308F4
:1009800001E04FF0040808FA06F848EA0508CCF838
:1009900008804D68D9F80060ED024D4601D5164338
:1009A00000E096432E604D68DAF80060AD025546CF
:1009B00001D5164300E096432E604D68DBF80060D9
:1009C000AD035D4601D5164300E096432E604D68A9
:1009D000DEF80060ED03754601D5164300E096434E
:1009E0002E60641C0D682A46E5407FF431AFBDE8F7
:1009F000F88F0000080401400000111000100240B0
:100A00000000014000080140000C014000100140BE
:100A1000001401408068084000D0012070470AB1EE
:100A2000016170470904FBE70148806870470000D6
:100A3000180000200548017809B901210170044916
:100A40000A68007810440860704700001800002011
:100A500020000020074810B5016841F01001016036
:100A6000032000F0A1F80F2000F006F800F04AF88B
:100A7000002010BD0020024030B505461C4887B05C
:100A8000816941F400618161806906A900F4006018
:100A9000009001A800F030F900F05EF91549164AFF
:100AA000B0FBF1F11548491E0260416040F2E732A7
:100AB0000021C0E903218160816100F049FB04004D
:100AC00012D10E4800F0ACFB04000DD1192000F04B
:100AD0003DF8102D07D200222946192000F044F8D5
:100AE0000748056000E0012407B0204630BD000043
:100AF0000010024040420F00002C014088010020FD
:100B00001C0000200F4808B5816941F00101816196
:100B1000816901F001010091C16941F08051C16119
:100B2000C069002200F0805000900F21901E00F05C
:100B30001BF80548416821F0E06141F00071416017
:100B400008BD00000010024000000140002809DB41
:100B500000F01F02012191404009800000F1E020D7
:100B6000C0F8001170470000F0B40E4B1B680C4633
:100B7000C3F30223C3F10705042D00D90425191D71
:100B8000072901D2002300E0DB1E012606FA05F149
:100B9000491E214099409E40761E16403143F0BCCC
:100BA00001F0E0B80CED00E0064900F0070208682B
:100BB0004FF6FF03184040EA0220034A1043086042
:100BC000704700000CED00E00000FA052DE9F04749
:100BD0000F46050061D0434E306800F00700B84270
:100BE00009D2306820F0070038433060306800F0E8
:100BF0000700B84251D128683B4C810712D5400705
:100C000003D5606840F4E06060602878000703D591
:100C1000606840F4605060606068A96820F0F0008F
:100C2000084360602878C00728D06868012810D081
:100C30002168022810D0890700292EDA616821F086
:100C4000030101436160FFF7EFFE804641F28839FE
:100C50000DE021688903EFE78901EDE7FFF7E4FE86
:100C6000A0EB0801494502D90320BDE8F087606880
:100C7000696800F00C00B0EB810FEFD1306800F034
:100C80000700B8420BD9306820F0070038433060C5
:100C9000306800F00700B84201D00120E5E728786D
:100CA000400705D56068E96820F4E06008436060AB
:100CB0002878000706D56068296920F4605040EA6A
:100CC000C100606000F058F86168084AC1F3031180
:100CD000515CC8400649086006480068FFF7CCFE32
:100CE0000020C2E70020024000100240F24200084B
:100CF000240000201C0000200F2202600C4A5368D0
:100D000003F003034360536803F0F0038360536808
:100D100003F4E063C36052684FF4E06303EAD20275
:100D200002610448006800F0070008607047000096
:100D3000001002400020024004480549006849684C
:100D4000044AC1F30221515CC840704724000020CE
:100D50000010024002430008044805490068496841
:100D6000044AC1F3C221515CC840704724000020EE
:100D700000100240024300080E4A51680E4801F07C
:100D80000C03042B11D0082B0FD10C48C1F3834363
:100D9000C903C05C0AD55168084AC1F34041921E9C
:100DA000515C054A5043B0FBF1F070470449484399
:100DB000704700000010024000127A00E242000872
:100DC00000093D002DE9F84F040070D02078C04D97
:100DD000C00749D06868C0F38100012807D068685F
:100DE000C0F38100022809D16868C00306D52868CD
:100DF000800339D560680028E7D035E06068B0F539
:100E0000803F0BD010B1B0F5A02F11D0286820F48E
:100E100080302860286820F4802002E0286840F4B0
:100E200080302860606890B1FFF7FEFD06460AE05A
:100E3000286840F480202860F0E700BFFFF7F4FD49
:100E4000801B642873D828688003F7D50CE0FFF76F
:100E5000EBFD064605E000BFFFF7E6FD801B6428BA
:100E6000F0D828688003F7D420789A4E80074FF096
:100E700001094FF0000839D5686810F00C0F07D051
:100E80006868C0F38100022809D16868C00306D4ED
:100E90002868800714D52069012808D110E020694E
:100EA000B0B1C6F80090FFF7BFFD074605E00AE1C4
:100EB000FFF7BAFDC01B0228C4D828688007F7D501
:100EC0002868616920F0F80040EAC10028600DE060
:100ED000C6F80080FFF7A8FD074604E0FFF7A4FD71
:100EE000C01B022823D828688007F7D42078000781
:100EF0002CD57948A169D9B1C0F80090FFF794FDCD
:100F0000074604E0FFF790FDC01B02280FD8686A6F
:100F10008007F7D571484FF4FA510068B0FBF1F043
:100F2000009000BF0098411E0091FAD20EE080E0D0
:100F3000C0F80080FFF778FD074604E0FFF774FD76
:100F4000C01B022875D8686A8007F7D4207840074C
:100F500060D5E8690027C00008D4E86940F08050F7
:100F6000E861E869012700F0805000905C48016862
:100F7000C90513D40168834641F480710160FFF70D
:100F800053FD824606E000BFFFF74EFDA0EB0A00CE
:100F900064284ED8DBF80000C005F5D5E0680128CC
:100FA0000AD008B1052813D0286A20F00100286271
:100FB000286A20F0040002E0286A40F0010028625C
:100FC000E06841F2883B98B1FFF72EFD82460BE0C6
:100FD000286A40F004002862EEE700BFFFF724FD16
:100FE000A0EB0A0159455AD8286A8007F6D50CE0CB
:100FF000FFF71AFD824605E0FFF716FDA0EB0A0198
:1010000059454CD8286A8007F6D41FB1E86920F00A
:101010008050E861E06988B36968C1F38101022901
:1010200044D00228C6F8608004D0FFF7FDFC0446D7
:1010300038E034E0FFF7F8FC074604E0FFF7F4FC83
:10104000C01B02282BD828688001F7D4206AB0F58D
:10105000803F05D16868A16820F4003008436860CB
:10106000D4E908010843696821F4741108436860F1
:10107000C6F86090FFF7D8FC044606E025E000BF04
:10108000FFF7D2FC001B022809D828688001F7D599
:101090001BE000BFFFF7C8FC001B022802D9032099
:1010A000BDE8F88F28688001F4D40EE00128F7D05D
:1010B0006868226A00F48031914204D1616A00F4C8
:1010C0007010884201D00120EAE70020E8E7000024
:1010D00000100240000042428004424224000020EE
:1010E000007000407047704770B590F83C20012AAE
:1010F00026D0012480F83C40022280F83D2003687D
:101100005A689D6822F070060A6832435A600D4B97
:1011100002689A4208D0B2F1804F05D00A4B9A4239
:1011200002D00A4B9A4204D1496825F08003194342
:10113000916080F83D40002180F83C10084670BD69
:10114000022070BD002C0140000400400008004057
:1011500010B5040003D094F83D0010B107E0012061
:1011600010BD002084F83C00204600F01FF802204B
:1011700084F83D00211D206800F09EFC012084F8C9
:10118000460084F83E0084F83F0084F8400084F86C
:10119000410084F8420084F8430084F8440084F855
:1011A000450084F83D00002010BD000008B500682F
:1011B000B0F1804F08D10548C16941F00101C1611A
:1011C000C06900F00100009008BD0000001002405E
:1011D00090F83D10012901D001207047022180F8CC
:1011E0003D1000680B49884208D0B0F1804F05D00F
:1011F0000949884202D00949884204D1816801F036
:101200000701062903D0016841F0010101600020B7
:1012100070470000002C014000040040000800401E
:1012200090F83D10012901D001207047022180F87B
:101230003D100168CA6842F00102CA6000680B49AB
:10124000884208D0B0F1804F05D00949884202D0C9
:101250000849884204D1816801F00701062903D0BA
:10126000016841F00101016000207047002C01403D
:10127000000400400008004070B5044690F83C00AF
:101280000025012817D0012684F83C60022084F84C
:101290003D002068826822F0770222F47F4282605B
:1012A0000868502838D00DDC20284FD005DC90B3DA
:1012B000102811D14AE0022070BD302846D04028C5
:1012C0000AD13BE060282FD070280DD0B0F5805FA8
:1012D00003D0B0F5005F12D0012584F83D600020F6
:1012E00084F83C00284670BDCB68D1E90121206814
:1012F00000F01EFC2068816841F0770109E0CB68AE
:10130000D1E90121206800F013FC2068816841F4D4
:1013100080418160E1E719E0CA684968206800F00F
:1013200019FC5021206806E0CA684968206800F06E
:1013300022FC6021206800F005FCCEE7CA684968FD
:10134000206800F007FC40212068F4E7226801468D
:101350001046F0E770472DE9F04104460068C66882
:1013600005694FF00007A90713D5B10711D5F91E7C
:10137000016101202077206880698007204602D023
:10138000FFF7E8FF04E000F07EF8204600F07CF86C
:101390002777680716D5700714D521686FF0040009
:1013A0000861022020772068806910F4407F204681
:1013B00002D0FFF7CFFF04E000F065F8204600F010
:1013C00063F82777280715D5300713D521686FF004
:1013D00008000861042020772068C0698007204643
:1013E00002D0FFF7B7FF04E000F04DF8204600F010
:1013F0004BF82777E80616D5F00614D521686FF06C
:1014000010000861082020772068C06910F4407F30
:10141000204602D0FFF79EFF04E000F034F820469B
:1014200000F032F82777E80708D0F00706D02168E7
:101430006FF001000861204600F028F8280608D562
:10144000300606D521686FF0800008612046FFF75E
:1014500049FE680608D5700606D521686FF0400081
:101460000861204600F01CF8A8060AD5B00608D589
:1014700021686FF0200008612046BDE8F041FFF7C9
:1014800032BEBDE8F0817047704700000068034934
:10149000884201D1FFF7CEBA70470000002C01400E
:1014A000704770B5040004D094F84100002510B1D5
:1014B00006E0012070BD84F84050204600F024F87A
:1014C000242084F841002068C16821F40051C160E3
:1014D000204600F089FB2068016921F490410161F8
:1014E0002068416921F02A0141612068C16841F406
:1014F0000051C1606564202084F8410084F84200F6
:101500006563002070BD000070B586B000240094B3
:10151000019402940394234E03682349022003227A
:10152000224DB34219D18B6943F480438B618B699F
:1015300003F4804304938B6943F004038B6189694E
:10154000039201F0040104910102CDE90010694603
:101550002846FFF76FF928151BE0154EB3421FD13F
:10156000CB6943F40033CB61CB6903F400330493BC
:101570008B6943F004038B618969039201F00401D4
:1015800004910421CDE9001069462846FFF752F97D
:101590000820CDE90004694628460294FFF74AF97D
:1015A00006B070BD00380140001002400008014044
:1015B000004400402DE9F84F044690F842009A4656
:1015C00016460D46202802D00220BDE8F88FB5B19E
:1015D000AEB100206064222184F842102063FFF73E
:1015E00023FAA6858146E685A0684FF48058202717
:1015F000404501D1206920B12E46002529E0012077
:10160000E3E7002625E04B46002220212046CDF8C6
:1016100000A000F045FB18B184F842700320D4E725
:1016200026B1A06840451AD038B108E0206840686B
:10163000C0F3080025F8020B08E0206978B12068A3
:10164000406800F07F0000BF06F8010BE08D401EEF
:10165000E085E08D0028D6D184F84270B5E7206897
:101660004068F1E72DE9F843044690F841009846B8
:1016700016460D46202802D00220BDE8F88385B129
:101680007EB100206064212084F84100FFF7CCF98E
:10169000A6848146E684A0682027B0F5805F02D04A
:1016A00003E00120E9E7206910B12E4600250EE095
:1016B00000260CE08021204600F0F2FAA8B9C6B15D
:1016C00016F8010B21684860E08C401EE084E08C35
:1016D0004B464FF00002CDF800800028EAD14FF0D1
:1016E0004001204600F0DCFA40B184F8417003204C
:1016F000C3E735F8020BC0F30800E3E784F8417054
:101700000020BAE7FEE7000010B5134800F0D5FD51
:10171000124C114A02212061183A082000F044FDC1
:101720000D4AE060843A00210D4800F01BFE0A4A91
:101730002060603A00210B4800F014FE064A606009
:101740003C3A0021084800F00DFEA060024810302D
:1017500000F057FC606110BDC0420008000000208E
:1017600011190008B9190008691900082DE9F0439A
:1017700085B000242C48009401940294039481695C
:1017800041F010018161816901F0100104918169CA
:1017900041F020018161816901F02001049181699A
:1017A00041F004018161816901F0040104918169C2
:1017B00041F00801816180691C4F00F008004FF47E
:1017C00000550490002229463846FFF728F9DFF833
:1017D0006080002202214046FFF721F9DFF8549093
:1017E000002260214846FFF71AF90126CDE900568C
:1017F000022569463846CDE90245FFF71BF8CDE9D9
:10180000005669464046CDE90245FFF713F86020CF
:10181000CDE9000669464846CDE90245FFF70AF8DA
:1018200005B0BDE8F0830000001002400010014048
:1018300000080140000C014010B586B00024164895
:10184000009401940294039404944FF08041059411
:1018500001604721C0E901144FF6FF71C0E903148C
:101860008461FFF775FC08B1FEF7E2FF4FF480508A
:10187000009069460848FFF7FFFC08B1FEF7D8FF63
:10188000049404A904480594FFF72EFC002801D015
:10189000FEF7CEFF06B010BDB00000200C4810B51A
:1018A0000A4901604FF4E1314160002181600C225E
:1018B000C160C0E904128161C161FFF7F2FD002837
:1018C00003D0BDE81040FEF7B3BF10BD00380140A3
:1018D000F80000200C4810B50A4901604FF4E131CE
:1018E0004160002181600C22C160C0E90412816165
:1018F000C161FFF7D6FD002803D0BDE81040FEF718
:1019000097BF10BD0044004040010020FEE7FEE705
:1019100008B50F4C4FF0FF3300220121606900F041
:10192000B1FB6D464FF47A76691C6846FEF718FDE8
:1019300030B100231A466946E06800F061FC02E01D
:1019400004A000F0E7F9304600F04EFBECE70000A1
:101950000000002053656E736F7220726561642011
:101960006661696C65640A0010B5FEF785FD0120AB
:1019700000F03AFBFEF73CFD012000F035FBFEF7DE
:10198000BDFDFEF707FE06A000F0C4F909480121DD
:10199000406900F04DFBBDE81040002001F0FCBAAA
:1019A000455350333220496E697420446F6E650D83
:1019B0000A00000000000020A2B0124D4FF0FF34DA
:1019C000234600220121686900F05CFB4FF4FA66AF
:1019D0002346002221A9E86800F0B4FB0028F7D1D3
:1019E0009DF8850000909DF8843007A2802101A811
:1019F00000F0A0F901A90BA0FEF730FE304600F080
:101A0000F3FAE5E7000000207B5C2274656D705CF2
:101A1000223A25645C2C205C2268756D695C223A50
:101A200025647D0073746D3332746F7069630000D8
:101A300010B54FF0E020006902F0FAF9012803D058
:101A4000BDE8104001F0A2BD10BD30B58FB0282117
:101A50006846FEF7CCFB14210AA8FEF7C8FB01215B
:101A60000804CDE900100024029402250491CDE978
:101A700007504FF4E01009906846FFF7A3F908B14A
:101A800072B6FEE70F20CDE90A054FF48060CDE97C
:101A90000C4002210AA80E94FFF798F8002801D004
:101AA00072B6FEE70FB030BD704700000148FFF787
:101AB00052BC000088010020F0B50268194B1A4C96
:101AC0001A4D4FF08047984205D0B84203D0A0424B
:101AD00001D0A84203D122F070064A6832439842EE
:101AE00005D0B84203D0A04201D0A84203D122F4CD
:101AF0004074CA6822434C6922F08002224302608B
:101B00008A68C2620A688262984201D109690163E7
:101B1000012141610169C90703D0016921F0010177
:101B20000161F0BD002C01400004004000080040AD
:101B300010B5846842EA032224F47F440A43224316
:101B4000826010BD826822F070020A4342F00701F1
:101B50008160704710B5036A046A24F001040462CE
:101B6000846924F0F00444EA021423F00A020A43D0
:101B70008461026210BD10B5036A046A24F0100487
:101B80000462846923F0A00324F4704444EA02321E
:101B900043EA01118261016210BD01680C3151E814
:101BA000002F22F4907241E80023002BF5D1016848
:101BB000143151E8002F22F0010241E80023002BEC
:101BC000F5D1016B012909D101680C3151E8002FD1
:101BD00022F0100241E80023002BF5D1202180F8EB
:101BE000421000210163704770B504460068016926
:101BF000E26821F44051114301612169A068084362
:101C0000616908432168CA6841F20C639A43024340
:101C1000CA6020684169A26921F4407111434161A1
:101C20001E492068884202D1FFF796F801E0FFF7CD
:101C300083F800EBC00101EB0012606864218000B2
:101C4000B2FBF0F3B3FBF1F36FF018067343B2FB92
:101C5000F0F5B2FBF0F605EB8305322303EB051537
:101C6000B5FBF1F5B6FBF1F605F0F00505EB061551
:101C7000B2FBF0F6B2FBF0F0B0FBF1F06FF018023F
:101C8000504306EB800003EB0010B0FBF1F021683D
:101C900000F00F002844886070BD0000003801404B
:101CA0002DE9F843984617460D460446089E24E061
:101CB000701C22D0FEF7B8FEA0EB0800B0421AD884
:101CC000CEB12068C168490717D5802D15D0402DA9
:101CD00013D00168C94309070FD401680025406883
:101CE00000902046FFF759FF0820606484F84050B8
:101CF0000120BDE8F8830320FBE72068006835EA8F
:101D0000000004D00020B842D2D00020F1E701202A
:101D1000F9E7FEE70FB4054B10B503A9044A029892
:101D200000F040F810BC5DF814FB0000A11F000893
:101D3000AC0000200FB41CB50246002007AC0029FF
:101D40000BD0491ECDE90021054B6A462146069875
:101D500000F028F8009A002111701CBC5DF814FBFB
:101D60005D1F00080907090E002804DB00F1E020D0
:101D700080F80014704700F00F0000F1E02080F8B8
:101D8000141D704702E008C8121F08C1002AFAD1CA
:101D900070477047002001E001C1121F002AFBD1EB
:101DA000704700002DE9FF4F8BB09A460F4605465D
:101DB000002606E025280BD052460D9990476D1C51
:101DC000761C28780028F5D10FB03046BDE8F08F9A
:101DD0000024A0460122604900E0044315F8013FB9
:101DE000203B02FA03F00842F7D128782E2817D1B9
:101DF00015F8010F44F004042A280ED06FF02F02CA
:101E00002878A0F1300109290AD808EB880102EBF3
:101E1000410100EB01086D1CF2E757F8048B6D1CC3
:101E2000287869283ED006DC0028CDD063280BD066
:101E3000642804D136E0732810D075284BD0524660
:101E40000D999047761C85E017F8040B8DF800007B
:101E500000208DF80100E946012003E057F8049BBB
:101E60004FF0FF3061074FF0000401D40AE0641C1A
:101E700044450DDA8442FADB19F804100029F6D142
:101E800006E0641C8442FCDB19F804100029F8D138
:101E9000264404E019F8010B52460D999047641E40
:101EA000F8D257E001CF4FF00A0B002802DA404287
:101EB0002D2102E0210504D52B218DF824100121CC
:101EC00003E0E10705D02021F7E70DF12009089193
:101ED0000CE00021F9E701CF4FF00A0BF9E7594672
:101EE000FEF7A9F901F1300209F8012D0028F6D119
:101EF000ADEB090000F1200B600701D44FF00108A1
:101F0000D84502DDA8EB0B0000E00020804600244D
:101F100006E009A85246005D0D999047641C761CA6
:101F200008988442F5DB04E0302052460D99904732
:101F3000761CB8F10001A8F10108F5DC05E019F8FC
:101F4000010B52460D999047761CBBF10001ABF195
:101F5000010BF4DC6D1C34E7092801004A68002AF3
:101F600006D00A68531C0B6010704868401E486019
:101F7000704730B504464FF47A7502E0284600F009
:101F800003F8641EFAD230BD044900220B685A627D
:101F900009684A6A8242FCD370470000B000002002
:101FA00013B54FF6FF73012269460248FFF75AFB4B
:101FB00000981CBD40010020FEF74CFDFFF745FDD9
:101FC000FFF7D4FBFFF76AFCFFF736FCFFF782FC54
:101FD0000448FFF7FDF800F087F8FFF795FB00F0E5
:101FE00095F8FEE7B000002010B5EFF3058111B1C0
:101FF0006FF0050403E0002408B100F0A7FF2046BD
:1020000010BD10B54FF00001EFF305826AB948B179
:10201000D0E902202AB1202807D3104601F07AF92E
:1020200002E010B901F068F90146084610BD000051
:1020300038B50C4610B1210E002902D06FF0030014
:1020400038BDEFF30581B1B1002100916A46214608
:1020500001F0BCF960B1009920460029F0D0084A8F
:102060004FF080511160BFF34F8FBFF36F8F38BDBA
:102070006FF0020038BD214601F062F938BD000062
:1020800004ED00E0F8B51D4616460C4610B1210ED1
:10209000002902D06FF00300F8BDEFF3058111B104
:1020A0006FF00500F8BDF10701D0012300E0002327
:1020B000B10701D5002200E001222146009501F080
:1020C0008DF9F3076FF001016FF0020206D084432F
:1020D00006D1F8BD0846F8BD1046F8BD0442FCD153
:1020E000002DF9D0F6E70000EFF3058010B16FF096
:1020F000050070470448016811B14FF0FF30704788
:1021000001210160002070477800002010B5EFF336
:10211000058010B16FF0050010BD08480168012965
:1021200002D04FF0FF3010BD054A002182F8141D87
:102130000221016001F062F8002010BD780000204B
:102140000BE000E0F8B51D466FF003026FF00206E9
:102150004FF00004EFF30583A3B1F0B1E9B1E5B9A5
:10216000002200926A4601F0A1FC012817D10098D4
:10217000B0B10C494FF080500860BFF34F8FBFF3F0
:102180006F8F0DE048B141B12A4601F0F3FB012801
:1021900006D025B16FF0010402E0144600E0344699
:1021A0002046F8BD04ED00E0F8B514464FF00005F8
:1021B000EFF3058212BB08B301B3A4B1D4E9023234
:1021C00063B1502A1AD32269C2B1676900FB01F6D4
:1021D000B74213D3009501F028FA07E072B92269DB
:1021E00062B9626952B9002201F0FEF9050005D01A
:1021F0000CB1216800E0002100F072FE2846F8BD15
:10220000F8B51D466FF003026FF002064FF00004B0
:10221000EFF30583ABB100B3F9B1F5B90022134672
:1022200000926A4601F028FB012818D10098B8B145
:102230000C494FF080500860BFF34F8FBFF36F8F92
:102240000EE050B149B100232A4601F065FA012899
:1022500006D025B16FF0010402E0144600E03446D8
:102260002046F8BD04ED00E02DE9F0410D460146A1
:1022700021F0010001F001014FF00004EFF30582AD
:102280000AB1A41F16E048B100296FF001066FF0F3
:102290000207294608D001F013FD07E06FF00304A0
:1022A00008E035B1344605E001F04EFC0128F8D1D4
:1022B00000E03C462046BDE8F08170B505464FF091
:1022C0000004EFF3058050BB0DB1686800E000200A
:1022D000C10701D0012600E0002600071FD46DB120
:1022E000D5E9021021B1502819D31EB1042002E013
:1022F00020B114E0012001F06AF905E00EB10420DC
:1023000000E0012001F058F9040008D00DB129685F
:1023100000E0002100F0E4FD0EB144F0010420468D
:1023200070BD70B5014621F0010001F001014FF0D0
:102330000004EFF305820AB1A41F11E028B16FF089
:10234000020529B101F0F7FA07E06FF0030407E096
:1023500000231A46194601F0DFF9012800D02C4667
:10236000204670BD2DE9FF414FEA01034FF0000503
:10237000EFF30581039549BB40B380271821002462
:102380004AB3166806B1344696691EB13146761EC8
:10239000382E02D21679F60703D0002004B0BDE82B
:1023A000F081566906B1B708D2F808C0BCF1000F39
:1023B0000DD0D5685C2D18D312693AB136B18DE8CD
:1023C00006103A46214601F002FD03900DE0D66862
:1023D0005EB912694AB903AACDE90012BAB2214620
:1023E00001F0C8FC012800D003950398D6E700004F
:1023F0002DE9F041134C0F460546E6682068001DA4
:1024000000F062FC681C07D137B12168BDE8F041DB
:102410000D48091D00F0B6BC20683544B542456042
:10242000216805D2A06BBDE8F041091D00F092BC07
:10243000606B091D00F08EFCA06A854200D2A56287
:10244000BDE8F08128000020C00600202DE9F04101
:10245000054600F0A3FC2D4CA068401CA06020683D
:102460002B4F10B1606930B32BE02560A0680128C4
:1024700027D1002606EB860007EB800000F05CFC0D
:10248000761C382EF6D3234800F056FC2148143031
:1024900000F052FC1F48283000F04EFC1D483C3034
:1024A00000F04AFC1B48503000F046FC19486063BD
:1024B0001430A06305E02068E96AC06A884200D849
:1024C0002560606A401C60626864E86A216988422D
:1024D00000D9206100EB800007EB8000291D00F08F
:1024E00051FC00F07BFC606900280CD02068E96A90
:1024F000C06A884207D208494FF080500860BFF395
:102500004F8FBFF36F8FBDE8F081000028000020DF
:10251000100200207006002004ED00E038B500F045
:102520003DFC104C2068C8B90F4800F005FC0E486F
:10253000143000F001FC0C48E060143020610A4BBC
:102540000020F03B009003F1500210210A2001F01E
:102550006CF8206010B105A100F0C2FCBDE8384065
:1025600000F03CBC64000020C4070020546D725190
:102570000000000030B4026C0B46002A0BD0C1688A
:102580001144C1608468A14201D30168C16030BCBC
:102590001846FDF713BE30BC70472DE9F041856B3E
:1025A000174604460026026C82B1C7B1E068FDF709
:1025B00005FEE168206C091AE1602268914202D2AE
:1025C000A168081AE060022F16D017E02068A8B9A9
:1025D000A06801F0A5FC06460020A0600EE060683F
:1025E000FDF7ECFD216C606808446060A1688842DA
:1025F00004D32068606001E005B16D1E6D1CA56309
:102600003046BDE8F08110B5044690F8590058B145
:1026100001280CD002280FD0502080F31188BFF37E
:102620004F8FBFF36F8FFEE7206B00F0EBFB204670
:10263000BDE8104000F0E6BB10BD000010484FF4AC
:102640000051420706D0C01D0D4920F00700411A75
:10265000C1F500510B4A00230144C2E900030839C7
:10266000183A21F0070111604B600B600B1AC0E9AA
:10267000001393604FF000405360506170470000BA
:10268000A40E002094000020144E154CA6F29C4786
:102690004FF08058DFF84C9012E000BF00F07EFB56
:1026A000F068C568281D00F00FFBA068401EA06000
:1026B0006068401E606000F091FB2846FFF7A3FFB2
:1026C00060680028EAD138680128F9D9C9F8008083
:1026D000BFF34F8FBFF36F8FF2E70000AC0600200F
:1026E0002800002004ED00E0002807D000218160D0
:1026F00001600B460A46C16001F00EB87047000049
:1027000070B51D46049C51B1C4F80020C4E90F0106
:102710000121204600F0BCFF84F84C5070BD2460BD
:10272000F4E700002DE9F05F8846DDE90B941546DB
:10273000834691009A460A9EA522206BFDF750FD24
:102740006FF00301206B01EB8501084420F00707BF
:10275000780707D0502080F31188BFF34F8FBFF365
:102760006F8FFEE70025B8F1000F0FD05FF000007B
:10277000221818F8001082F8341018F8001011B15F
:10278000401C1028F4D384F8435001E084F83450FE
:10279000382E00D33726E662C4E91365201D00F009
:1027A000D6FA04F1180000F0D2FA2461C6F138001C
:1027B0006462A061656584F85850524659463846AF
:1027C00000F070FA2060B9F1000F01D0C9F80040A4
:1027D000BDE8F09F30B5114900E011460A68824219
:1027E000FBD34B685C18844203D1406818444860AE
:1027F000084643681C18944209D1084C183C2468C8
:10280000A24209D052681A4442600A681268026003
:10281000814200D0086030BD0460F9E794000020D8
:1028200070B5002441600B4D0061914206D8D11A69
:102830008269914206D2011D286907E09A4203D2BB
:10284000994201D3012403E0011DE86800F082FAF7
:10285000204670BD6400002010B5044600F09EFACA
:10286000A06B28B15FF0000400F0B8FA204610BD5C
:102870000124F9E730B589B03C4D6EE0049800289A
:1028800006DADDE90601059A90470498002864DB22
:10289000069C606910B1201D00F016FA03A800F034
:1028A000D7F8024604980A2857D2DFE800F0050559
:1028B000052D334A05052D3394F8280040F001001A
:1028C00084F828000599A069059B01442046FFF77C
:1028D000A7FF68B3216A2046884794F8280040077C
:1028E0003BD5002000900598A169002342181946A5
:1028F000204601F05BFCD8B9502080F31188BFF36B
:102900004F8FBFF36F8FFEE714F8280F20F0010000
:10291000207022E094F8280040F0010084F828009C
:102920000598A06128B1811813462046FFF778FF6B
:1029300013E0502080F31188BFF34F8FBFF36F8FE8
:10294000FEE794F82800810703D4204600F05AFAE5
:1029500003E020F0010084F82800002204A9286880
:1029600001F008F8002889D109B030BD64000020CA
:102970002DE9FC410F46054600F084FC01A800F05B
:1029800067F80446019818B101F07EFBBDE8FC81B0
:10299000254EAFB130690068D0B30027291B3A46F5
:1029A000306800F0B1FA01F06FFB0028EED11F494A
:1029B0004FF080500860BFF34F8FBFF36F8FE5E794
:1029C000A542EBD801F060FBF0682746C068C468F8
:1029D000201D00F079F994F82800410719D5A06965
:1029E0002B4641193A462046FFF71AFFA8B10020AE
:1029F0000346014600902A46204601F0D7FB60B905
:102A0000502080F31188BFF34F8FBFF36F8FFEE725
:102A100007E020F0010084F82800216A204688475A
:102A2000B4E70127BAE700006400002004ED00E0ED
:102A30000648416B096829B1416BC968C968496892
:102A4000816270474FF0FF31FAE700002800002054
:102A500070B5054601F0FAF9064E0446B0688442A6
:102A600003D200F009F8012000E000202860204691
:102A7000B46070BD64000020F8B5194D20E0C06856
:102A8000C4680668201D00F01FF9216A20468847A7
:102A900094F82800400713D5A0693044B04206D905
:102AA00024616060211DE86800F054F908E000200E
:102AB0000346014600903246204601F077FB38B1CC
:102AC000E86801680029DAD12969C5E90310F8BD71
:102AD000502080F31188BFF34F8FBFF36F8FFEE755
:102AE0006400002008484068401C4FF0500080F30C
:102AF000118804D0BFF34F8FBFF36F8FFEE7BFF392
:102B00004F8FBFF36F8FFEE79C000020034600202D
:102B100012B1994302D070470B42FCD0012070479C
:102B2000074CE068016841B1C0680021D0F800009E
:102B3000FFF71EFFFFF79EFEF3E701210020F7E7F6
:102B4000640000202DE9F041044600F027F994F9D3
:102B5000455004F1240609E0606A48B1304601F0AE
:102B60005BFA08B100F068FA6D1E6DB2002DF3DC5F
:102B70004FF0FF3684F8456000F030F900F00EF9B0
:102B800094F9445004F1100709E0206948B138462F
:102B900001F042FA08B100F04FFA6D1E6DB2002D3F
:102BA000F3DC84F84460BDE8F04100F017B90000A0
:102BB0002DE9F0410546002700F064FB324E3068F5
:102BC00008B9FFF73BFD706905424ED1C5B3083522
:102BD00068070ED005F00700C0F10800054468073B
:102BE00007D0502080F31188BFF34F8FBFF36F8F52
:102BF000FEE72DB37068854237D823481830014668
:102C00000C6801E020460C466168A94202D22168A6
:102C10000029F7D131688C4227D00768216801600C
:102C200060680837411B10290FD96019420708D086
:102C3000502080F31188BFF34F8FBFF36F8FFEE7F3
:102C400013E041606560FFF7C5FD61687068401A78
:102C50007060B268904200D2B06070690143002099
:102C6000C4E90001F068401CF06001F00DFA78073B
:102C700007D0502080F31188BFF34F8FBFF36F8FC1
:102C8000FEE73846BDE8F0817C0000200449086872
:102C900018B10868026D521C026508687047000090
:102CA0002800002010B5031F4FF080741C601B1F0C
:102CB00021F001011960191F024B0B6014394038D3
:102CC0000A6010BDE52A0008D0E9013201699A6066
:102CD000D0E901235A604A68824201D182684A6081
:102CE000002202610868401E086008687047000002
:102CF000044908680A688069D26A0968C2F1380222
:102D00008A61704728000020034B036003F15C00D8
:102D10000860802010607047EC070020044B0360BF
:102D200003F15C0008604FF4807010607047000091
:102D3000480A002000F004BB00F108014FF0FF3208
:102D4000C0E90112C16001610021016070470021EA
:102D50000161704730B50B685A1C02D000F10802BF
:102D600002E0026904E02246546825689D42FAD9CF
:102D700053684B6099608A60516008610168491C22
:102D8000016030BD42684A6093688B609368596007
:102D9000916008610168491C01607047502080F310
:102DA0001188BFF34F8FBFF36F8F0A494868401CEB
:102DB000486001280CD10848006810F0FF0F07D0C8
:102DC000502080F31188BFF34F8FBFF36F8FFEE762
:102DD000704700009C00002004ED00E008494868AE
:102DE00028B1401E486001D180F3118870475020FF
:102DF00080F31188BFF34F8FBFF36F8FFEE70000A2
:102E00009C00002070B500282AD0164DA0F10804BF
:102E100060686969084207D1502080F31188BFF3C8
:102E20004F8FBFF36F8FFEE722683AB1502080F3D7
:102E30001188BFF34F8FBFF36F8FFEE78843606049
:102E400000F020FA60686968084468602046FFF76F
:102E5000C1FC2869401C2861BDE8704001F014B92C
:102E600070BD00007C0000204FF0E02000210161D7
:102E7000816105494FF47A720968B1FBF2F1491E8C
:102E800041610721016170472400002010B5FDF762
:102E90007FF9114910280ED300F1E02090F8F003DB
:102EA0000A78904207D2502080F31188BFF34F8FE9
:102EB000BFF36F8FFEE709480068896800F4E0609F
:102EC000884207D9502080F31188BFF34F8FBFF39A
:102ED0006F8FFEE710BD00009C0000200CED00E0AD
:102EE00010B5084B002200BF53F832401CB1521CF1
:102EF000082AF9D310BD43F8321003EBC201486031
:102F000010BD0000D001002070B515460E460446E5
:102F1000FFF744FF94F944100020491C01D184F8C4
:102F2000440094F94510491C01D184F84500FFF78D
:102F300055FFA06B28B92A46314604F1240000F061
:102F400099F82046BDE87040FFF7FCBD10B50200BF
:102F500014D00F48006B38B1502080F31188BFF3B4
:102F60004F8FBFF36F8FFEE700F08CF90021104602
:102F7000FFF73EFA01F088F8002807D105494FF025
:102F800080500860BFF34F8FBFF36F8F10BD0000FC
:102F90002800002004ED00E070B50546FFF7FEFEB6
:102FA0001E4C05B92568281DFFF78EFEA86A18B1CA
:102FB00005F11800FFF788FE606A401C6062206817
:102FC000854207D1291D1648FFF7DCFE6068401CCA
:102FD000606007E0A068401EA0602846FFF713FB72
:102FE000FFF726FDFFF7FAFE6069002814D020687D
:102FF000854211D1206B38B1502080F31188BFF386
:103000004F8FBFF36F8FFEE706494FF08050086087
:10301000BFF34F8FBFF36F8F70BD000028000020FB
:10302000AC06002004ED00E002490A6A0260C968AB
:10303000416070472800002001490120C8617047A5
:103040002800002010B50C4650B109490968183114
:10305000FFF780FE2046BDE810400121FFF7C8B908
:10306000502080F31188BFF34F8FBFF36F8FFEE7BF
:103070002800002070B514460D4668B10A49096859
:103080001831FFF77FFE0CB14FF0FF35214628467F
:10309000BDE87040FFF7ACB9502080F31188BFF352
:1030A0004F8FBFF36F8FFEE72800002010B5144646
:1030B000030011D01048026BB2B1026841F0004128
:1030C0009161016818461831FFF75CFE2046BDE8A3
:1030D00010400121FFF78CB9502080F31188BFF315
:1030E0004F8FBFF36F8FFEE7502080F31188BFF33F
:1030F0004F8FBFF36F8FFEE72800002070B50400EC
:103100003ED0226DA2B1E06C884200D30146E06A55
:10311000884235D0012A33D11A4D2A6894420FD102
:10312000502080F31188BFF34F8FBFF36F8FFEE7FE
:10313000502080F31188BFF34F8FBFF36F8FFEE7EE
:10314000E162A269002A02DBC1F13801A1610E4EE1
:1031500000EB8000616906EB8000814210D1201DE8
:10316000FFF7B2FDE06A2969884200D9286100EBC7
:10317000800006EB8000211DBDE87040FFF702BE15
:1031800070BD0000280000201002002070B5194D0D
:103190002A6BF2B141F000410160C4680CB3FFF743
:1031A00093FD201DFFF790FDE06A2969884200D950
:1031B0002861114900EB800001EB8000211DFFF721
:1031C000E1FDE06A2968C96A884201D90120E86105
:1031D00070BD502080F31188BFF34F8FBFF36F8F06
:1031E000FEE7502080F31188BFF34F8FBFF36F8F3E
:1031F000FEE70000280000201002002030B587B054
:103200000024039405AA04A903A80494FFF77CFDF5
:10321000DDE903010094CDE90110002315A1174851
:10322000059A00F0D4FD164D0028E8621FD000F08A
:103230008DFF012809D0401C19D1502080F311883E
:10324000BFF34F8FBFF36F8FFEE7502080F31188DD
:10325000BFF34F8FBFF36F8F4FF0FF30A862012095
:103260006861EC6007B0BDE8304000F03BB907B0E2
:1032700030BD000049444C4500000000892600088C
:10328000280000200248016B491C016370470000C0
:1032900028000020164810B5016B11B10121C16151
:1032A00010BD0021C1610169124A01E0B9B1491E96
:1032B00001EB810352F82330002BF7D001EB81039F
:1032C00002EB830202F1080453685B685360A34277
:1032D00001D15B685360DA680260016110BD502063
:1032E00080F31188BFF34F8FBFF36F8FFEE70000AD
:1032F000280000201002002070B52020FFF758FCA5
:10330000040005D00025201D2560FFF715FD257759
:10331000204670BD38B558B12021044600200091E8
:103320002060201DFFF708FD01202077204638BDD2
:10333000502080F31188BFF34F8FBFF36F8FFEE7EC
:103340002DE9F0410027884604000AD05FEA1860A2
:103350000FD0502080F31188BFF34F8FBFF36F8FD2
:10336000FEE7502080F31188BFF34F8FBFF36F8FBC
:10337000FEE7261D04F10C05FFF784FF2168F068C5
:1033800041EA0801216017E0D0E9001601F07F4210
:103390005301236821F07F4102D40B4203D10AE09C
:1033A00031EA030307D1D20100D50F43216841F070
:1033B0000071FFF7EBFE3046A842E5D12068B84324
:1033C000206000F061FE2068BDE8F08113460A46E7
:1033D0000146014800F01EBF352D00082DE9F047D9
:1033E0009A46DDF8209090460D4604004FF0000705
:1033F00009D0280E0FD0502080F31188BFF34F8FD3
:10340000BFF36F8FFEE7502080F31188BFF34F8F1B
:10341000BFF36F8FFEE71DB100F00AFD40B112E06F
:10342000502080F31188BFF34F8FBFF36F8FFEE7FB
:10343000B9F1000F07D0502080F31188BFF34F8FF0
:10344000BFF36F8FFEE7FFF71DFF26685246294640
:103450003046FFF75BFB30B1B8F1000F1AD020689F
:10346000A843206016E0B9F1000F13D0B8F1000FA7
:1034700001D04FF08077BAF1000F01D047F080679C
:1034800045EA07014A46201DFFF710FE00F0FCFD4B
:1034900018B10AE000F0F8FD1FE011494FF080502C
:1034A0000860BFF34F8FBFF36F8FFFF721FC064615
:1034B000800110D4FFF772FC266852462946304638
:1034C000FFF724FB28B1B8F1000F02D02068A84311
:1034D0002060FFF783FC26F07F463046BDE8F0878A
:1034E00004ED00E01CB5264908780190FF20087023
:1034F00008788DF800009DF800009DF8002000F08D
:10350000F000904207D0502080F31188BFF34F8F16
:10351000BFF36F8FFEE79DF800001A4C00F05000DB
:1035200020700720A06005E09DF8002052008DF873
:103530000020401E9DF800201206F5D4A06003284C
:1035400007D0502080F31188BFF34F8FBFF36F8FE8
:10355000FEE74FF44070A060019808700A480168C7
:1035600041F470010160016841F070410160FFF7B2
:103570007BFC00206060FCF7D5FD00201CBD000036
:1035800000E400E09C00002020ED00E010B5502099
:1035900080F31188BFF34F8FBFF36F8F00F05CFC97
:1035A00018B104494FF080500860002080F3118862
:1035B00010BD000004ED00E010B50246002101201E
:1035C00000F012F80446FFF78FF8204610BD38B51A
:1035D0000B46002200901146012000F026F8044618
:1035E000FFF782F8204638BDF8B517460E460500AD
:1035F00013D005FB06F05030FFF7DAFA04000AD0CA
:10360000002084F8460004F150023B46314628462B
:103610000094FFF775F82046F8BD502080F311881C
:10362000BFF34F8FBFF36F8FFEE738B5049D18B11E
:1036300053B1CAB181B120E0502080F31188BFF3AB
:103640004F8FBFF36F8FFEE7502080F31188BFF3D9
:103650004F8FBFF36F8FFEE7502080F31188BFF3C9
:103660004F8FBFF36F8FFEE739B1502080F3118881
:10367000BFF34F8FBFF36F8FFEE750241C4601232B
:1036800084F846302B460094FFF73AF8204638BDC0
:1036900070B50D46040025D0FFF780FBD4E90F205C
:1036A000216802FB0011A1600021A1632168616013
:1036B0000A46D4E90F01401E00FB0121E1602146CA
:1036C0004FF0FF3001F8440F487004F110008DB145
:1036D000FFF732FB04F12400FFF72EFBFFF77EFB20
:1036E000012070BD502080F31188BFF34F8FBFF3CE
:1036F0006F8FFEE721690029F0D000F08DFC0028D3
:10370000ECD004494FF080500860BFF34F8FBFF3F7
:103710006F8FE3E704ED00E02DE9FF4782B01D461F
:103720008A464FF00008040003D0BAF1000F08D019
:1037300011E0502080F31188BFF34F8FBFF36F8FDC
:10374000FEE7206C38B1502080F31188BFF34F8F13
:10375000BFF36F8FFEE7022D0AD1E06B012807D07F
:10376000502080F31188BFF34F8FBFF36F8FFEE7B8
:1037700000F05EFB3F4F4FF000094FF0805648B914
:10378000049838B1502080F31188BFF34F8FBFF3F6
:103790006F8FFEE7FFF702FBA06BE16B884207D358
:1037A000022D05D00498D0B1B8F1000F1AD01EE058
:1037B0002A4651462046FEF7F0FE616A19B104F12F
:1037C000240000F029FC20B13E60BFF34F8FBFF30F
:1037D0006F8FFFF703FB012006B0BDE8F087FFF70E
:1037E000FDFA22E06846FFF71FFC4FF00108FFF7E3
:1037F000F5FAFFF747FDFFF7D1FA94F94400401CB2
:1038000001D184F8449094F94500401C01D184F81A
:103810004590FFF7E3FA04A9684600F071FA30B169
:103820002046FFF78FF900F02FFC0020D4E7FFF7C8
:10383000B5FAA06BE16B884213D1FFF7CFFA04F120
:1038400010000499FFF7FEFB2046FFF77BF900F01C
:103850001BFC00289ED13E60BFF34F8FBFF36F8FDC
:1038600098E7FFF7BBFA2046FFF76CF900F00CFC75
:1038700090E7000004ED00E02DE9F0471F46904678
:103880008946040003D0B9F1000F08D011E05020A0
:1038900080F31188BFF34F8FBFF36F8FFEE7206C6B
:1038A00038B1502080F31188BFF34F8FBFF36F8F73
:1038B000FEE7022F0AD1E06B012807D0502080F3E9
:1038C0001188BFF34F8FBFF36F8FFEE7FFF7DEFA6C
:1038D0005020EFF3118680F31188BFF34F8FBFF3B1
:1038E0006F8FA06BE16B884206D3022F04D00020BB
:1038F00086F31188BDE8F08794F94550A06B3A46ED
:1039000049462046FEF749FE681C04D06D1C84F829
:1039100045500120ECE7606A0028FAD004F1240049
:1039200000F07AFB0028F4D0B8F1000FF1D00121AB
:10393000C8F80010EDE710B5040009D000F072FAE5
:10394000A168884214D1E068401EE06008D00DE014
:10395000502080F31188BFF34F8FBFF36F8FFEE7C6
:1039600000231A4619462046FFF7D6FE012010BD57
:10397000002010BD2DE9F747002683B08A460400D9
:1039800003D0BAF1000F08D011E0502080F3118865
:10399000BFF34F8FBFF36F8FFEE7206C38B150201D
:1039A00080F31188BFF34F8FBFF36F8FFEE700F0F6
:1039B0003FFADFF8F4804FF000094FF0805748B924
:1039C000059838B1502080F31188BFF34F8FBFF3B3
:1039D0006F8FFEE7FFF7E2F9A56BC5B151462046B0
:1039E000FEF7C8FD6D1EA563206950B104F11000FB
:1039F00000F012FB28B1C8F80070BFF34F8FBFF37F
:103A00006F8FFFF7EBF9012006B0BDE8F08705984E
:103A100008B11EB106E0FFF7E1F927E06846FFF7BD
:103A200003FB0126FFF7DAF9FFF72CFCFFF7B6F9E5
:103A300094F94400401C01D184F8449094F9450065
:103A4000401C01D184F84590FFF7C8F905A96846E4
:103A500000F056F9002820460AD0FFF773F800F06E
:103A600013FB2046FEF7F8FE0028B3D00020CBE77A
:103A7000FEF7F2FE90B104F124000599FFF7E2FA97
:103A80002046FFF75FF800F0FFFA0028A2D1C8F83F
:103A90000070BFF34F8FBFF36F8F9BE72046FFF798
:103AA00051F800F0F1FA95E704ED00E02DE9F04758
:103AB00090468946040003D0B9F1000F08D011E008
:103AC000502080F31188BFF34F8FBFF36F8FFEE755
:103AD000206C38B1502080F31188BFF34F8FBFF3B3
:103AE0006F8FFEE7FFF7D2F95020EFF3118680F3D6
:103AF0001188BFF34F8FBFF36F8FA76BF7B194F9A6
:103B0000445049462046FEF735FD7F1EA763681CDA
:103B100004D06D1C84F84450012010E02069002876
:103B2000FAD004F1100000F077FA0028F4D0B8F1D0
:103B3000000FF1D00121C8F80010EDE7002086F356
:103B40001188BDE8F08700002DE9F343002683B01B
:103B50000400354609D0206C78B1502080F31188DC
:103B6000BFF34F8FBFF36F8FFEE7502080F31188B4
:103B7000BFF34F8FBFF36F8FFEE700F059F9DFF807
:103B80003C814FF000094FF0805748B9049838B194
:103B9000502080F31188BFF34F8FBFF36F8FFEE784
:103BA000FFF7FCF8A06BC8B1401EA063206810B9F5
:103BB000FFF76CF8A060206950B104F1100000F02C
:103BC0002BFA28B1C8F80070BFF34F8FBFF36F8F87
:103BD000FFF704F9012005B0BDE8F083049808B1AF
:103BE00066B10FE03DB1502080F31188BFF34F8FD5
:103BF000BFF36F8FFEE7FFF7F1F85DE06846FFF770
:103C000013FA0126FFF7EAF8FFF73CFBFFF7C6F8C7
:103C100094F94400401C01D184F8449094F9450083
:103C2000401C01D184F84590FFF7D8F804A96846F4
:103C300000F066F80028204612D0FEF783FF00F05F
:103C400023FA2046FEF708FE0028A9D09DB3FFF70F
:103C5000A5F8606A50B3206B0068C0F1380126E017
:103C6000FEF7FAFDE0B1206838B9FFF797F8A068D1
:103C700000F096F90546FFF7B1F804F12400049925
:103C8000FFF7E0F92046FEF75DFF00F0FDF90028A0
:103C900086D1C8F80070BFF34F8FBFF36F8F7FE7F7
:103CA0002046FEF74FFF00F0EFF979E70021A0680A
:103CB000FFF724FA9FE7FFE700208CE704ED00E020
:103CC00070B50D46040009D000F0ACF8A168884238
:103CD0000CD1E068401CE060012070BD502080F3F2
:103CE0001188BFF34F8FBFF36F8FFEE72946204641
:103CF000FFF72AFF0028F0D0E168491CE16070BDA1
:103D00002DE9F0410C46050011D0C4B1FFF746F88B
:103D1000174BDA686E682068911B471C17D02F6814
:103D20001B6A9F4219D0964217D8012410E05020F8
:103D300080F31188BFF34F8FBFF36F8FFEE75020E2
:103D400080F31188BFF34F8FBFF36F8FFEE700241E
:103D5000FFF744F82046BDE8F081884205D9401AB3
:103D600020602846FFF760F9F1E700202060DCE7DB
:103D7000280000202DE9FF5F8346DDE90E87994684
:103D800016468A469000FEF713FF05001CD05C2003
:103D9000FEF70EFF040014D00020256384F85900BC
:103DA000CDE90240CDE900874B46324651465846A0
:103DB000FEF7B8FC2046FEF749FB012004B0BDE841
:103DC000F09F2846FFF71EF84FF0FF30F6E7F0B5FA
:103DD00085B0DDE90B640A9DA6B1DCB15C270097D4
:103DE0002663022684F85960002604AFCDE9024616
:103DF000CDE90057FEF796FC2046FEF727FB049816
:103E000005B0F0BD502080F31188BFF34F8FBFF392
:103E10006F8FFEE7502080F31188BFF34F8FBFF301
:103E20006F8FFEE7014800687047000028000020FF
:103E30000548416919B1006B18B100207047012095
:103E40007047022070470000280000200148C06829
:103E500070470000280000202DE9F0412E4C00277B
:103E6000206B28B1A069401CA0613846BDE8F081F4
:103E7000E668761CE66013D1606B006838B15020AC
:103E800080F31188BFF34F8FBFF36F8FFEE7606B36
:103E9000A16B6163A063206A401C2062FEF7C8FD2D
:103EA000A06ADFF87880864209D3606B0068A0B111
:103EB000606BC068C5686868864211D2A0622068DD
:103EC000C06A00EB800158F82100012800D90127C1
:103ED000E0690028C9D00127C7E74FF0FF30EDE7C0
:103EE000281DFEF7F1FEA86A18B105F11800FEF7CB
:103EF000EBFEE86A2169884200D9206100EB80016D
:103F000008EB8100291DFEF73DFFE86A2168C96AB8
:103F10008842CAD30127C8E72800002010020020E9
:103F200070B504004FF0000133D01B4D2868844267
:103F300007D0502080F31188BFF34F8FBFF36F8FEE
:103F4000FEE7206D38B1401E2065E36CE26A9A42BC
:103F50001FD040B11DE0502080F31188BFF34F8F78
:103F6000BFF36F8FFEE7201DFEF7AEFEE06CE06250
:103F7000C0F13800A061E06A2969884200D928614F
:103F8000064900EB800001EB8000211DFEF7FAFEE0
:103F90000121084670BD000028000020100200200A
:103FA00070B504004FF000002BD0194DE16A2A686B
:103FB000D26A914226D2A069002804DB2868C06A30
:103FC000C0F13800A061134E01EB8101606906EB7E
:103FD0008101884211D1201DFEF776FE2868C06A53
:103FE000E0622969884200D9286100EB800006EB75
:103FF0008000211DFEF7C6FE02E02868C06AE0626C
:10400000012070BDE16C2A68D26A9142F8D370BD7C
:10401000280000201002002070B5C068C46854B1A8
:1040200004F118000646FEF74FFE144D286B50B100
:104030003146134815E0502080F31188BFF34F8FAD
:10404000BFF36F8FFEE7201DFEF73EFEE06A296991
:10405000884200D928610B4900EB800001EB800009
:10406000211DFEF78FFEE06A2968C96A884202D9DD
:104070000120E86170BD002070BD00002800002014
:1040800098060020100200202DE9F0472C4D002456
:104090002746286B38B1FEF781FE286B401E286347
:1040A000286B40B146E0502080F31188BFF34F8F5A
:1040B000BFF36F8FFEE7A968224E0120D1B3A6F5AA
:1040C000916980463068E0B1F068C46804F1180076
:1040D000FEF7FAFD201DFEF7F7FDE06A2969884228
:1040E00000D9286100EB800109EB8100211DFEF75A
:1040F00049FEE06A2968C96A8842E3D3C5F81C8092
:10410000E0E70CB1FEF794FCAC694CB14FEA08064D
:10411000FFF7A2FE00B1EE61641EF9D10020A86194
:10412000E86938B10849012738070860BFF34F8FA5
:10413000BFF36F8FFEF752FE3846BDE8F0870000F0
:10414000280000209806002004ED00E010B586B09D
:10415000FEF7E4F9114C2068B8B1002003900490F8
:1041600005AA04A903A8FEF7D9FDDDE90321022071
:104170008DE8070000230AA10B48059AFFF727FEE8
:10418000606010B106B0012010BD502080F311888E
:10419000BFF34F8FBFF36F8FFEE700006400002076
:1041A000546D722053766300212B00082DE9FF41E6
:1041B0001E46134602000A9D4FF0000016D0144C14
:1041C0002768002F0FD0CDE900130292062917DAD5
:1041D000FFF72EFE02284FF000030FD000226946A1
:1041E0002068FFF799FA04B0BDE8F081502080F311
:1041F0001188BFF34F8FBFF36F8FFEE72A46EEE7BC
:104200000023324669463846FFF736FBEBE70000ED
:10421000640000201FB51C466FF00103CDE900309B
:10422000CDE9021204480023224669460068FFF7E0
:1042300023FB04B010BD00006400002018430008F8
:10424000000000000000000000000000000000006E
:104250000004000018000000000000000000000042
:1042600024430008000000000000000000000000DF
:104270000000000000040000080000000000000032
:1042800000000000344300080000000000000000AF
:1042900000000000000000000004000028000000F2
:1042A00000000000000000000C43000800000000B7
:1042B00000000000000000000000000000000000FE
:1042C0005043000800000000000000000000000053
:1042D0004043000800000000000000000000000053
:1042E000010202030405060708090A0B0C0D0E0F54
:1042F0001010000000000000000001020304060787
:104300000809000000000102030400006468743121
:1043100031517565756500004448543131546173FD
:104320006B0000004D71747453656E645461736B5F
:1043300000000000496E69745461736B0000000056
:1043400078496E69744576656E7447726F75700052
:104350004D7574657800000041542B4D51545455EF
:104360005345524346473D302C312C2273746D33F4
:10437000325F636C69656E745F74657374222C229E
:104380006B756E647973222C226C697579616F6B21
:10439000756E31303238222C302C302C2222000025
:1043A000C043000800000020B0000000841D000889
:1043B00070440008B0000020F8330000941D00088D
:1043C00000000000000000000000000000000000ED
:1043D00000000000000000000100000010000000CC
:1043E0000000000000127A00000000000000000041
:1043F00000000000000000000000000000000000BD
:1044000000000000000000000000000000000000AC
:10441000000000000000000000000000000000009C
:10442000000000000000000000000000000000008C
:10443000000000000000000000000000000000007C
:10444000000000000000000000000000000000006C
:10445000000000000000000000000000000000005C
:10446000AAAAAAAA000000000000000000000000A4
:04000005080000ED02
:00000001FF
